:100000003EC0B4C158C057C056C055C054C053C0FC
:1000100052C051C050C04FC04EC04DC04CC0040370
:1000200009041A03540069006C006C0020004800A9
:10003000610072006200610075006D001A036900C2
:10004000320063002D00740069006E0079002D00FD
:1000500075007300620012011001FF000008030424
:1000600031C60501010200010902120001010080F0
:10007000050904000000000000000100FF8E1124AB
:100080001FBECFE5D1E0DEBFCDBF10E0A0E6B0E0FF
:10009000E6E5FAE003C0C89531960D92A636B107A1
:1000A000D1F710E0A6E6B0E001C01D92A939B10772
:1000B000E1F75AD3CFC4A4CF85B7836085BF8BB790
:1000C00080648BBF08950F931F93CF93DF9360914C
:1000D0007F00662349F1635080917C00CFE8D0E037
:1000E000C81BD10980917B008D3281F08091660020
:1000F00087FD12C08C2F9D2F5AD38F3F09F456C015
:10010000882309F464C020E030E008C08AE58093C9
:100110006100683009F484C020E030E83093660064
:100120002093600010927F008091610084FF27C0BF
:10013000809160008F3F19F1682F893070F5861B20
:10014000809360008091660080FF25C003EC8F5F84
:100150008093660087FD3EC0662381F180E790E0D2
:1001600073D3682F7727162F693008F450C08FEFAC
:10017000809360009EE100936F00909361009AE08D
:1001800086B3857009F0EDC09150D1F710928000D0
:1001900010927A00E6C00BE4DACF68E0861B809309
:1001A00060008091660080FFF6CFD0CF8093600022
:1001B0008EE1809361002FEF30E0B0CF60E080E708
:1001C00090E045D294E08FEF80936000D4CF2FEF82
:1001D00030E0A4CF20917D0030917E0086FD3CC0B0
:1001E000462F41504F3F69F0F32FE22F942FA0E7A5
:1001F000B0E081918D939150E0F7240F311D2F5F76
:100200003F4F30937E0020937D007727ACCF80E76F
:1002100090E01DD2912F9C5F183008F0ACCFD3CF67
:1002200088818076B1F528E730E0109278008981E6
:10023000882311F51092790030937E0020937D0081
:1002400022E030E88F81882309F068CF8E81821701
:1002500008F064CF282F62CF462F41504F3F89F2DC
:10026000F32FE22F942FA0E7B0E0C895802D8D9357
:1002700031969150D0F7C1CF853099F08630E9F0B2
:10028000883029F1893099F18A3051F120E030E845
:10029000D9CF8C2F9D2F33D3282F8F3F41F030E8BB
:1002A000D1CF8A818093800020E030E8CBCF888155
:1002B00087FF82CF2E8130E031CF8B81813091F169
:1002C000823039F18330C9F020E030ECBBCF82E8D6
:1002D00090E090937E0080937D0021E030E8B2CFE3
:1002E00030937E0020937D0021E030E8ABCF8A81FF
:1002F0008093820020E030E8A5CF8A818823D9F45A
:100300008EE190E090937E0080937D0024E030ECBD
:1003100099CF88E690E090937E0080937D0022E163
:1003200030EC90CF86E590E090937E0080937D0046
:1003300022E130EC87CF813059F0823029F68CE30E
:1003400090E090937E0080937D002AE130EC7ACF9C
:1003500082E290E090937E0080937D002AE130EC71
:1003600071CFDF91CF911F910F910895CF93CFB7A8
:10037000CF93B09BFECFB09B09C0B09B07C0B09B92
:1003800005C0B09B03C0B09B01C09EC0DF93C0916D
:100390007C00DD27CD57DF4FB09B02C0DF91EBCF54
:1003A0002F930F931F9306B32FEF00FB20F94F936A
:1003B0003F9316B34FEF012700FB21F93BE031C01B
:1003C0004E7F012F16B3216028C0102F4D7F226071
:1003D000000006B329C04B7F2460012F000016B334
:1003E0002BC016B3477F28602AC04F7E06B320611A
:1003F0002CC04F7D16B320622FC04F7B06B3206404
:1004000032C0422706B349934FEF0000102710FB7C
:1004100020F916B31570A9F1297F91F2012700FB8D
:1004200021F906B3237F89F23150F0F1102710FB38
:1004300022F916B3277E79F2012700FB23F92F7CDE
:1004400081F206B3102710FB24F92F7971F200C056
:1004500016B3012700FB25F92F7359F200C006B32C
:10046000102710FB26F9223040F200C016B30127F6
:1004700000FB27F9243028F64F77206816B30000D8
:10048000F9CF3B503195333010E41ABFB8F0C31B9D
:10049000D0400881033C41F10B3431F11981412FE7
:1004A0001F7720917A00121731F4093691F10D323D
:1004B00079F0013E69F02227209381003F914F910E
:1004C0001F910F912F91DF91CF91CFBFCF911895B1
:1004D000009381003F914F911F910F912F91DF91D8
:1004E000CAB7C6FD46CFF0CF00918100002331F39B
:1004F00010917F00112349F534304AF130937F0089
:1005000000937B0010917C003BE0311B30937C001A
:100510001EC000917F000130C4F40AE530916100F3
:1005200034FD17C000936100CFE6D0E016C0052768
:1005300010E008BB1FC0052722C0052727C00527DC
:100540002CC0052710E008BB33C04AE503C042EDCC
:1005500001C0432FC4E1D0E032E017B31560C09A68
:1005600008B317BB5F9355E020E820FF052708BBC1
:10057000279517951C3FD8F620FF0527279508BB20
:1005800017951C3FC0F620FF05272795179508BB38
:100590001C3F98F620FF0527279517951C3F08BBA1
:1005A00070F600C0499120FF052708BB27951795D5
:1005B0001C3F38F620FF0527279508BB17951C3FE1
:1005C00038F520FF05272795179508BB1C3F10F528
:1005D00020FF0527279517951C3F08BBE8F4242F1B
:1005E0003A9519F60A7F5F9108BB00C01091800010
:1005F000C651D04011F010937A0010E41ABF016088
:1006000017B31A7F402F4A7F08BB17BB48BB56CF92
:100610000527D3CF0527D8CF0527DDCFA82FB92FA2
:100620008FEF9FEF41E050EA615070F02D9138E07C
:10063000722F782796958795269570FF02C084279C
:1006400095273A95A9F7F0CF809590950895E6DF24
:100650008D939D930895882319F0B998C19A0895B0
:10066000B99AC198089586B39927827090700895B9
:10067000E0916400F09165003197F1F7882329F04B
:10068000BD98C59AB59BFECF02C0BD9AC598809112
:100690006200909163000197F1F7089581E0E8DF2F
:1006A00080E0E6DF089580E0D6DF81E0E1DF81E0F1
:1006B000D2DF08950F931F93CF93DF93082F112755
:1006C000C7E0D0E008C081E0C6DFE8DF21978FEF08
:1006D000CF3FD80791F0912F802F0C2E02C0959517
:1006E00087950A94E2F780FDEECF80E0B4DFD6DF95
:1006F00021978FEFCF3FD80771F781E0ACDF81E022
:10070000B7DFB1DF182F80E0B3DF80E090E0112386
:1007100011F481E090E0DF91CF911F910F91089546
:10072000FF920F931F93F82E81E095DF80E0A0DF0A
:1007300017E000E081E09CDF96DF000F811101608F
:1007400080E096DF1150B0F7FF2019F081E083DFE1
:1007500002C080E080DFA2DF81E07DDF802F99276B
:100760001F910F91FF90089588E190E02EE00FB661
:10077000F894A89581BD0FBE21BDB998C19ABD98C6
:10078000C59A10926D0010926C0088B38A7F88BB66
:1007900087B3856087BB80E49CE90197F1F787B355
:1007A0008A7F87BB89DC7894A8958DDCFDCFCF92BA
:1007B000DF92EF92FF920F931F93CF93DF93D92F86
:1007C000C82F062F80916700813051F0C62EDD249E
:1007D0005D2D4C2D60E070E08C2F9D2F33D129C012
:1007E000E0906C00F0906D00C62EDD24EC14FD044A
:1007F00018F40E2DCE2CDD24002381F010E0899119
:1008000059DF1F5F0117D9F70150E01AF10808946A
:10081000E108F108F0926D00E0926C0080916E00AA
:1008200081FF07C080916C0090916D00892B09F4C5
:100830003ADF9D2D8C2DDF91CF911F910F91FF906D
:10084000EF90DF90CF900895AF92BF92CF92DF925A
:10085000EF92FF920F931F93CF93DF93082F192FDF
:10086000E62E80916700813051F0A62EBB245B2DCF
:100870004A2D60E070E0912F802FE4D033C0C0900B
:100880006C00D0906D00A62EBB24CA14DB0418F4B3
:10089000EC2CAC2CBB24EE20D1F0DD2DCC2DFF2494
:1008A000219780E009F481E03BDFF12FE02F819375
:1008B0000E2F1F2FF394EF1499F7EA94CE18D10856
:1008C0000894C108D108D0926D00C0926C0080914C
:1008D0006E0081FF07C080916C0090916D00892BA4
:1008E00009F4E1DE9B2D8A2DDF91CF911F910F91AD
:1008F000FF90EF90DF90CF90BF90AF9008951F933F
:10090000CF93DF93D92FC82F88E690E090937E0095
:1009100080937D008981823009F444C08330A0F146
:10092000833009F46FC0883060F51C81110F8A8113
:100930009B8180FD1160898180FD04C081E08BDE98
:1009400081E096DE80E087DE80E092DE812FB2DEFD
:10095000882309F45EC081E0809367002E813F8187
:1009600030936D0020936C00898180936E0081FF2D
:1009700004C0232B09F043C096DE8E819F81892B12
:10098000F1F580E090E04EC0882339F18130C9F75D
:1009900044E050E06AE770E088E690E047D084E009
:1009A00090E040C08A819B819093630080936200B5
:1009B0000097E1F481E090E09093630080936200FF
:1009C000109265001092640081E090E090936500C1
:1009D0008093640080E090E025C08A818093680065
:1009E0008B818093690082E090E01CC0969587958A
:1009F0009093650080936400892B31F3C2CF8FEF11
:100A000090E010C0809167008093680081E090E0E2
:100A100009C082E08093670010926D0010926C0014
:100A200042DEABCFDF91CF911F910895E62FF72FD4
:100A3000A82FB92F03C0C89531960D924150504050
:100A4000D0F70895A82FB92F01C06D9341505040A1
:060A5000E0F70895FFCF5E
:060A5600FF5A0A00050032
:00000001FF
